:020000040800F2
:10000000500A002065010008B52C0008612C00088A
:10001000B12C000871070008174C00080000000010
:10002000000000000000000000000000153700087C
:100030005D14000800000000492E0008114000086F
:100040007F0100087F0100087F0100087F01000890
:100050007F0100087F0100087F0100087F01000880
:100060007F0100087F0100087F010008711000086F
:100070007F0100087F0100087F0100087F01000860
:100080007F0100087F0100087F0100087F01000850
:10009000750700087F0100087F0100087F01000844
:1000A0007F0100087F0100087F0100087F01000830
:1000B0007F010008E1400008A14200087F0100081C
:1000C0007F0100087F0100087F0100087F01000810
:1000D0007F0100089146000841470008B547000825
:1000E0007F0100087F0100087F0100080000000078
:1000F0000000000000000000000000000000000000
:100100000000000000000000054300087F01000817
:10011000E14500087F0100087F0100087F01000819
:100120007F0100087F0100087F0100087F010008AF
:100130007F0100087F0100087F0100087F0100089F
:10014000350800087F0100087F0100087F010008D2
:10015000DFF80CD000F054F900480047095B0008B4
:10016000500A00200648804706480047FEE7FEE7A1
:10017000FEE7FEE7FEE7FEE7FEE7FEE7FEE7FEE757
:100180007540000851010008F0B480EA0102D20F66
:100190004300B3EB410F02D20346084619464B0019
:1001A00042D0C30DDDB2C1F3C7542C1B202C35DA6D
:1001B000C1F3160141F4000502B16D42C4F12006FD
:1001C00005FA06F125412844B3EBD05F23D0C2B134
:1001D000012CA0EBC35009DCF0BC4FF0004202EA56
:1001E000C35200F50000DBB200F0DBB8400000F1C4
:1001F000807000EBC350A0F1807040EAD1704900DC
:1002000009E0490841EAC071A0EBC35000F50000C5
:10021000400800EBC350F0BC00F0BAB851420123D3
:1002200003EB4101801AF6E7F0BC704781F0004112
:10023000AAE780F00040A7E780EA010210B502F0CB
:100240000042400026D04B0023D04FEA106101EB62
:100250001361C0F35600C3F3560340F4000043F4A7
:100260000003A0FB0330A1F17F014FEA00401C0412
:1002700001D000F1010050EA134001D44000491EB2
:10028000C3B20C0604EBD010401C4008802B02D0F7
:1002900003E0002010BD20F00100002900DA00205A
:1002A000104310BD80EA010202F0004330B430F088
:1002B000004221F0004015D0A0B1C0F3C755C2F3F1
:1002C000C754C2F31601C0F31600651B41F40001C8
:1002D00040F400007D35814201D36D1C00E04900EF
:1002E000002D02DA30BC002070474FF400020024D9
:1002F000814201D3091A144352084FEA4101F7D150
:1003000051B1814202D14FF0004105E002D24FF0DD
:10031000010101E06FF0010104EBC55030BC18444D
:1003200000F036B8C10F80EAE0700844CA0796238F
:10033000002100F036B896230022114600F031B8B3
:1003400020F00040C10DC0F3160040F400007F29EA
:1003500001DA00207047962903DCC1F19601C840FC
:100360007047963988407047002801DBC0F1004093
:10037000002901DBC1F1004181427047002801DB07
:10038000C0F10040002901DBC1F100418842704703
:100390000029A8BF7047401C490008BF20F0010099
:1003A000704710B4B0FA80FC00FA0CF050EA010477
:1003B00004BF10BC704749B1CCF1200421FA04F409
:1003C00011FA0CF118BF012121430843A3EB0C01E2
:1003D000CB1D4FEA00614FEA102048BF0020BCBF90
:1003E00010BC704700EBC35010440029A4BF10BCE0
:1003F0007047401C490008BF20F0010010BC704746
:10040000064C074D06E0E06840F0010394E8070061
:1004100098471034AC42F6D3FFF79EFE2C650008D7
:100420004C65000821B1826842F00102826003E05D
:10043000826822F0010282607047000000B587B038
:1004400001214FF4027002F0A3FD4FF4004002F0CE
:1004500063FD0320ADF8040000208DF8070001A91A
:10046000224802F0BFFA224800F050F80020029023
:1004700001208DF80C008DF80D004FF460200490E1
:100480000020059002208DF8180002A9184800F0FD
:100490007FF8072301220821154800F0A1F807235F
:1004A00002220921124800F09BF80121104800F0B7
:1004B00021F801210E48FFF7B5FF0D4800F0ECF8D8
:1004C00000BF0B4800F05AF80028FAD1084800F0A5
:1004D000F3F800BF064800F047F80028FAD10121E0
:1004E000034800F0DEF807B000BD0000000C01403A
:1004F0000024014021B1826842F48072826003E0EE
:10050000826822F4807282607047000010B5044651
:100510001248844208D10121401502F049FD002112
:10052000601502F045FD17E00D48844208D1012115
:10053000001502F03DFD0021201502F039FD0BE011
:100540000848844208D10121C80302F031FD00218E
:100550004FF4004002F02CFD10BD000000240140CB
:1005600000280140003C0140014600208A6812F04A
:10057000040F01D0012000E0002070470146002058
:100580008A6812F0080F01D0012000E000207047B7
:1005900030B502460020002350680F4C20400D79F2
:1005A0000C6844EA05242043506090680B4C2040BE
:1005B000D1E902542C434D7944EA4504204390602C
:1005C000D06A20F470000C7C641EE4B2234340EA3D
:1005D0000350D06230BD0000FFFEF0FFFDF7F1FFD9
:1005E000F0B504460D4600200021092D11DDE0681C
:1005F000A5F10A0606EB4607072606FA07F1884327
:10060000A5F10A0606EB460603FA06F10843E06088
:100610000CE0206905EB4507072606FA07F1884339
:1006200005EB450603FA06F108432061072A0FDAB5
:10063000606B561E06EB86071F2606FA07F18843F5
:10064000561E06EB860605FA06F10843606322E0B3
:100650000D2A0FDA206BD61F06EB86071F2606FA37
:1006600007F18843D61F06EB860605FA06F1084314
:10067000206310E0E06AA2F10D0606EB86071F2654
:1006800006FA07F18843A2F10D0606EB860605FA85
:1006900006F10843E062F0BD816841F00801816025
:1006A000704721B1826842F4A002826003E0826850
:1006B00022F4A00282607047816841F004018160E9
:1006C0007047000008B50121082002F061FC4FF4DA
:1006D0008060ADF8000014208DF8030003208DF831
:1006E00002006946094802F07DF94FF40060ADF858
:1006F000000014208DF8030003208DF802006946E5
:10070000024802F06FF904F063FE08BD000C0140DE
:1007100038B5044674B94FF40060ADF800001420F9
:100720008DF8030003208DF802006946084802F0A6
:1007300059F90BE0012C09D1E002ADF80000482086
:100740008DF803006946024802F04CF938BD0000FC
:10075000000C0140002000BF04E00021034A1154B6
:10076000411CC8B20628F8DB70470000B900002021
:1007700000BFFEE710B50024264A0021264800F0FD
:1007800094FA24484068254988421DD12148007ABE
:10079000042819D122480078C82802D10020204915
:1007A00008701F480078401C1D490870002406E0AE
:1007B00018480B30005D1B490855601CC4B2082C5A
:1007C000F6DB0020184908801248406813490D39AB
:1007D00088421DD10F48007A042819D113480078A7
:1007E000C82802D100201149087010480078401C28
:1007F0000E490870002406E006480B30005D0C49E5
:100800000855601CC4B2082CF6DB0020064908809D
:1008100010BD0000EC010020006400409A10F810A8
:1008200000000020180000204800002001000020E7
:100830002000002010B50024264A0021264800F0A0
:1008400034FA24484068254988421DD12148007A5D
:10085000042819D122480078C82802D10020204954
:1008600008701F480078401C1D490870002406E0ED
:1008700018480B30005D1B490855601CC4B2082C99
:10088000F6DB0020184908801248406813490D39EA
:1008900088421DD10F48007A042819D113480078E6
:1008A000C82802D100201149087010480078401C67
:1008B0000E490870002406E006480B30005D0C4924
:1008C0000855601CC4B2082CF6DB002006490880DD
:1008D00010BD0000EC010020006800409A10F810E4
:1008E0000000002018000020480000200100002027
:1008F0002000002000B589B000208DF81A008DF886
:100900001B008DF81C008DF81D008DF81E008DF861
:100910001F008DF816008DF8170002208DF81800C2
:1009200001208DF819001820ADF8140000208DF872
:100930000F0001208DF810000020ADF80400ADF884
:100940000600ADF80800ADF80A00ADF80C00012073
:100950008DF811000121400602F0FAFA4FF4006010
:10096000ADF8200048208DF8230008A92A4802F09D
:1009700039F84FF48050ADF8200018208DF823008E
:1009800003208DF8220008A9234802F02BF8234801
:1009900000F04CF805A9214800F0F9F800208DF886
:1009A0000E0001A800F05EF8012202211B4800F0B1
:1009B000E5F80121880602F0CBFA2020ADF82000EE
:1009C00048208DF8230008A9154802F00BF84020B4
:1009D000ADF8200018208DF8230003208DF82200A8
:1009E00008A90F4801F0FEFF01210E4802F084F82B
:1009F0000D4800F01BF805A90B4800F0C8F80E20C0
:100A00008DF80E0001A800F02DF801220221064801
:100A100000F0B4F809B000BD0008014000640040D7
:100A2000000C0140400020000068004010B5044662
:100A30000B48844209D10121480602F099FA0021AD
:100A40004FF0007002F094FA08E00121880602F0ED
:100A50008FFA00214FF0806002F08AFA10BD00008A
:100A60000064004010B50021837A012202FA03F1EC
:100A70003B4A126842F001023A4BC3F800261A467C
:100A8000D2F81C2622EA0102374B1A60027BB2B967
:100A9000364A126822EA0102344B1A604288C3883F
:100AA00042EA0343324A847A42F834300288838827
:100AB00042EA03432E4A847A02EBC4025360027B6B
:100AC000012A16D1294A126842EA0102274B1A600C
:100AD0004288038842EA0343254A847A42F8343044
:100AE000C288838842EA0343214A847A02EBC40223
:100AF0005360C27A3AB91F4A126822EA0102194BBE
:100B0000C3F8042606E01B4A126842EA0102154BAC
:100B1000C3F80426028932B9174A126822EA010290
:100B2000104BC3F814260289012A06D1124A126812
:100B300042EA01020B4BC3F81426427B012A06D17C
:100B4000094A126842EA0102064BC3F81C26044A0D
:100B5000126822F00102034BC3F8002610BD00000A
:100B600000660040006000401C6600400C660040CB
:100B70004066004004660040146600401AB14369B4
:100B80000B43436102E043698B434361704730B5D7
:100B9000024600200023146824F002041460146844
:100BA00044F00104146000E05B1C546804F001048C
:100BB000012C03D0A3F57F44FF3CF5D1546804F029
:100BC0000104012C01D000206EE08C79012C04D1AD
:100BD000146844F08004146003E0146824F0800476
:100BE0001460CC79012C04D1146844F040041460E2
:100BF00003E0146824F0400414600C7A012C04D142
:100C0000146844F02004146003E0146824F0200405
:100C100014604C7A012C04D1146844F01004146060
:100C200003E0146824F0100414608C7A012C04D1C1
:100C3000146844F00804146003E0146824F0080405
:100C40001460CC7A012C04D1146844F004041460BC
:100C500003E0146824F0040414608C78A407CD78B1
:100C600044EA05640D7944EA05444D7944EA0554A3
:100C70000D886D1E2C43D461146824F001041460A7
:100C8000002300E05B1C546804F00104012C03D134
:100C9000A3F57F44FF3CF5D1546804F00104012C16
:100CA00001D1002000E0012030BD10B500F5D8735F
:100CB00003EB01131B6803F004031372137A53B997
:100CC00000F5D87303EB01131B6840F2FF7404EACC
:100CD0005353136009E000F5D87303EB01131B684D
:100CE0006FF0604404EAD303536000F5D87303EB5C
:100CF00001131B6803F00203537200F5D87303EB72
:100D000001135B6803F00F03937200F5D87303EBD4
:100D100001135B681B0AD37400F5D87303EB01134E
:100D20009B68D37200F5D87303EB01139B681B0A11
:100D3000137300F5D87303EB01139B681B0C5373FB
:100D400000F5D87303EB01139B681B0E937300F53A
:100D5000D87303EB0113DB68D37300F5D87303EB8F
:100D60000113DB681B0A137400F5D87303EB01133E
:100D7000DB681B0C537400F5D87303EB0113DB68BD
:100D80001B0E937421B9C36843F02003C36003E0D2
:100D9000036943F02003036110BD00002DE9F14F0A
:100DA00084B0314801680498FFF7DEFA2E48D0F885
:100DB00048130498FFF7E2FA4FF000054FF0D2060F
:100DC0004FF0690427E0284850F824100498FFF7F2
:100DD000CBFA06D22646701900EBD071C1F3470456
:100DE00019E0214850F824100498FFF7C7FA06D2FA
:100DF0002546701900EBD071C1F347040BE004EBFA
:100E00008400A0F1C8084046FFF78CFA0746384630
:100E100005B0BDE8F08F701B0128D4D104EB84002D
:100E2000A0F1C808104850F8259050F826A0404678
:100E3000FFF778FA494603905046FFF7F7F949461D
:100E400001900498FFF7F2F908490090FFF7F4F9D0
:100E500083460199FFF726FA02900399FFF794F968
:100E600007463846D4E70000E06100080000A040D3
:100E7000002000BF2CE003280CDD1749095CA9B94C
:100E80001649095C012911D11549095C491C144A0C
:100E900011540BE01049095C012907D10F49095C85
:100EA00021B90F49095C491C0D4A11540A49095CD2
:100EB00031B10B49095C41F080010A4A115405E047
:100EC0000749095C01F07F01064A1154411CC8B270
:100ED0000628D0DB70470000B3000020AD000020E2
:100EE000B9000020BF00002010B54021564801F095
:100EF0004FFE564908708021534801F049FE53497E
:100F000048704FF48061524801F042FE4F498870AA
:100F100050480078012806D002281DD0032835D07B
:100F200004287FD133E04948807878B94A4800687E
:100F30004A490968884203D10120494908700AE0FA
:100F400045480068401C4449086004E000204449CA
:100F500008704149086065E03C48007801280FD1DD
:100F60003D4800683D490968884203D102203C4958
:100F700008700AE038480068401C3749086004E0FF
:100F8000002037490870344908604BE000BF2F4803
:100F90000078012812D12D48807878B92E48006851
:100FA0002E490968884203D103202D49087038E092
:100FB00029480068401C2849086032E0234800782E
:100FC000012813D12148807801280FD122480068D8
:100FD00022490968884203D102202149087020E093
:100FE0001D480068401C1C4908601AE0174800783A
:100FF00090B91648807878B9174800681749096889
:10100000884203D10120164908700AE0124800689E
:10101000401C1149086004E00020114908700E4985
:10102000086000BF00BF0E48007860B10D4800683E
:1010300048B101200C4908700A4800680B49086053
:10104000002004F0A5FA10BD00100140A600002009
:1010500000140140020100209000002094000020B4
:10106000890000208C000020E2000020E400002025
:1010700010B5022000F0FEF820B104F05BFC022065
:1010800000F002F810BD000010F0805F02D00349AC
:10109000086001E002494860704700000404024013
:1010A0000000024021B1026842F00102026004E047
:1010B00002684FF6FE731A400260704700B58BB0AD
:1010C0000121084601F034FF134800F02BF81348C3
:1010D000009013480190002002903C2003900020D3
:1010E000049080200590400006908000079020200A
:1010F00008900002099000200A906946064800F016
:10110000D8F801210448FFF7CDFF0122022102484F
:1011100000F0C6F80BB000BD080002404C240140AE
:101120002001002001684FF6FE721140016000218D
:10113000016041608160C1604A49884208D14949E3
:101140000839496841F00F01464A083A516088E081
:1011500044491431884208D142490839496841F06C
:10116000F001404A083A51607BE03E49283188420C
:1011700008D13C490839496841F47061394A083A54
:1011800051606EE037493C31884208D13549083911
:10119000496841F47041334A083A516061E031498D
:1011A0005031884208D12F490839496841F47021EB
:1011B0002C4A083A516054E02A496431884208D1E7
:1011C00028490839496841F47001264A083A5160B3
:1011D00047E024497831884208D1224908394968D2
:1011E00041F070611F4A083A51603AE01E49884256
:1011F00008D1A0F10401096841F00F011B4AC2F8AF
:1012000004142EE018491431884207D1184909689E
:1012100041F0F001154AC2F8041422E012492831C5
:10122000884207D11249096841F470610F4AC2F837
:10123000041416E00C493C31884207D10C49096876
:1012400041F47041094AC2F804140AE006495031D9
:10125000884206D10649096841F47021034AC2F860
:1012600004147047080002400804024000000240D5
:101270000404024001460020002211F0805F02D0E9
:10128000054B1A6801E0054B1A680A4201D001209B
:1012900000E000207047000000040240000002400F
:1012A0001AB103680B43036002E003688B430360D9
:1012B000704710B50022026847F6F0739A430C6A33
:1012C0008B6823430C6923434C6923438C69234374
:1012D000CC6923434C6A23438C6A23431A4302603C
:1012E000CB6843600B6883604B68C36010BD00002F
:1012F00038B504464FF48050ADF8000003208DF857
:101300000200012C03D110208DF8030002E04820D8
:101310008DF803006946024801F064FB38BD000007
:101320000018014070B5044644F001044FF4005128
:101330000F4801F036FC4FF400610D4801F031FC1C
:101340004FF400510A4801F02EFC204600F05EF8F0
:1013500000F010F805464FF40061054801F023FC49
:101360004FF40051024801F01CFC284670BD0000FB
:101370000018014070B500240020FFF7B9FF0025D8
:1013800014E064104FF480510C4801F001FC08B1E6
:1013900044F080044FF40061084801F004FC4FF46D
:1013A0000061064801F0FDFB681CC5B2082DE8DBB2
:1013B0000120FFF79DFF204670BD0000001801408E
:1013C00070B505460C464FF400510F4801F0E9FB9B
:1013D0004FF400610C4801F0E4FB4FF400510A485F
:1013E00001F0E1FB284600F011F8204600F00EF86D
:1013F0004FF40061044801F0D6FB4FF4005102485D
:1014000001F0CFFB70BD00000018014070B504462C
:101410000120FFF76DFF00251AE014F0010F05D041
:101420004FF480510C4801F0BEFB04E04FF48051B2
:10143000094801F0B6FB4FF40061074801F0B3FB27
:101440004FF40061044801F0ACFB6410681CC5B2A5
:10145000082DE2DB70BD000000180140704700E07D
:10146000401E0028FCD17047FEB5FF4800780128D7
:101470007EDA002600250024FC48005D01281ED1EC
:10148000FB48C57A0120FB49485545F08003F84ADE
:10149000F9498DE80E000223F84AF9480168F94835
:1014A000006804F0F1F80646304602F065FA30466E
:1014B00004F0CAFD0120EC490870EC490855601C95
:1014C000C4B22625E948005D01281BD145F0800300
:1014D000E74AE9498DE80E000223E84AE848016836
:1014E000E848006804F0D0F80646304602F044FAB6
:1014F000304604F0A9FD0120DB490870DB4908559E
:10150000E1490870601CC4B22725D848005D012855
:101510001BD145F08003D64AD7498DE80E0002233F
:10152000D64AD7480168D748006804F0ADF80646A7
:10153000304602F021FA304604F086FD0120CA4907
:101540000870CA490855D1490870601CC4B22825E2
:10155000C648005D01281BD145F08003C44AC64936
:101560008DE80E000223C54AC5480168C54800E061
:10157000F6E1006804F088F80646304602F0FCF90F
:10158000304604F061FD0120B7490870B74908559D
:10159000601CC4B22925B548005D012819D145F069
:1015A0008003B34AB4498DE80E000223B34AB4481D
:1015B0000168B448006804F067F80646304602F057
:1015C000DBF9304604F040FD0120A7490870A74927
:1015D0000855601CC4B22A25A448005D01281BD10F
:1015E00045F08003A24AA4498DE80E000223A34AD5
:1015F000A3480168A348006804F046F80646304650
:1016000002F0BAF9304604F01FFD01209649087037
:10161000964908559E490870601CC4B22B25934812
:10162000005D012819D145F08003914A92498DE867
:101630000E000223914A924801689248006804F023
:1016400023F80646304602F097F9304604F0FCFCD9
:1016500001208549087085490855601CC4B22C25B5
:101660008248005D012819D145F08003804A8249F3
:101670008DE80E000223814A814801688148006894
:1016800004F002F80646304602F076F9304604F0DF
:10169000DBFC01207449087074490855601CC4B211
:1016A0002D257248005D012819D145F08003704A4C
:1016B00071498DE80E000223704A71480168714833
:1016C000006803F0E1FF0646304602F055F9304667
:1016D00004F0BAFC01206449087064490855601C94
:1016E000C4B22E256148005D012819D145F0800360
:1016F0005F4A61498DE80E000223604A6048016834
:101700006048006803F0C0FF0646304602F034F936
:10171000304604F099FC012053490870534908559C
:10172000601CC4B22F255148005D012819D145F035
:1017300080034F4A50498DE80E0002234F4A50481B
:1017400001685048006803F09FFF0646304602F0EB
:1017500013F9304604F078FC0120434908704349EE
:101760000855601CC4B230254048005D012819D1DD
:1017700045F080033E4A40498DE80E0002233F4A6F
:101780003F4801683F48006803F07EFF0646304648
:1017900002F0F2F8304604F057FC0120324908709C
:1017A00032490855601CC4B231253048005D01281B
:1017B00019D145F080032E4A2F498DE80E000223EF
:1017C0002E4A2F4801682F48006803F05DFF064647
:1017D000304602F0D1F8304604F036FC01202249B0
:1017E000087022490855601CC4B232251F48005DAC
:1017F000012819D145F080031D4A1F498DE80E00CC
:1018000002231E4A1E4801681E48006803F03CFF80
:101810000646304602F0B0F8304604F015FC0120D0
:101820001149087011490855601CC4B233250F488E
:10183000005D012830D145F080030D4A0E498DE846
:101840000E0002230D4A0E4801680E48006803F09E
:101850001BFF0646304602F08FF8304604F0F4FBDA
:1018600001200149087015E0290000200002002035
:10187000980100201402002035000020CC01002037
:10188000140000201000002052000020530000200F
:101890004A00002033490855601CC4B23425314841
:1018A000005D012819D145F080032F4A2F498DE8AA
:1018B0000E0002232E4A2F4801682F48006803F0CB
:1018C000E3FE0646304602F057F8304604F0BCFB13
:1018D00001202A49087023490855601CC4B23525E7
:1018E0002048005D012819D145F080031E4A1F4998
:1018F0008DE80E0002231E4A1E4801681E4800683B
:1019000003F0C2FE0646304602F036F8304604F0D8
:101910009BFB01201949087012490855601CC4B28C
:1019200036251048005D012819D145F080030E4A84
:101930000E498DE80E0002230D4A0E4801680E483C
:10194000006803F0A1FE0646304602F015F8304666
:1019500004F07AFB0120094908700249085500BFCC
:10196000FEBD00000002002098010020350000208C
:10197000CC010020140000201000002029000020CD
:1019800000B589B000200890079006900590FF48A8
:10199000C07858B3FE48007840BBFC48C078079038
:1019A000FC490798085C00BB0121FA4A07981154CA
:1019B000079840F08003F54AF7498DE80E000223AE
:1019C000F64AF7480168F748006803F05DFE0890A2
:1019D000089801F0D1FF089804F036FB0120F24985
:1019E00008700121F14A0698115432E0EF49069837
:1019F000085C01282DD10490049022E0E549049868
:101A0000085C012819D104980790E04AE249079B35
:101A10008DE80E000223E14AE1480168E1480068D0
:101A200003F032FE0890089801F0A6FF089804F031
:101A30000BFB0021D74A049811540498401CC0B2F3
:101A4000049004980E28D9DB0021D84A0698115436
:101A500000BF0698401CC0B2069026200790D448CC
:101A6000008840F2DC51884224DDD0490698085CA9
:101A7000F8B9079840F08003C44AC7498DE80E00C2
:101A80000223C64AC6480168C648006803F0FCFD48
:101A90000890089801F070FF089804F0D5FA01202A
:101AA000C14908700121C14A069811540120C14959
:101AB00008701FE0BD490698085C01281AD1B34A96
:101AC000B549079B8DE80E000223B44AB44801686B
:101AD000B448006803F0D8FD0890089801F04CFF66
:101AE000089804F0B1FA0021B04A06981154002079
:101AF000B04908700698401CC0B206902720079095
:101B0000AD48008840F22621884224DDA749069886
:101B1000085CF8B9079840F080039C4A9E498DE81C
:101B20000E0002239D4A9E4801689E48006803F00B
:101B3000ABFD0890089801F01FFF089804F084FAA4
:101B40000120994908700121984A069811540120F2
:101B50009A4908701FE095490698085C01281AD137
:101B60008A4A8D49079B8DE80E0002238B4A8C48D8
:101B700001688C48006803F087FD0890089801F020
:101B8000FBFE089804F060FA0021884A0698115478
:101B900000208A4908700698401CC0B20690282090
:101BA00007908748007805907848018E0598814213
:101BB0002EDD8048007858BB7C490698085C00BB45
:101BC00080480078C8281DDD079840F080036F4AE0
:101BD00071498DE80E000223704A7148016871480E
:101BE000006803F051FD0890089801F0C5FE0898C0
:101BF00004F02AFA01206C49087001216B4A06980A
:101C000011544CE06F480078401C6E49087046E063
:101C10006848007801281CD164490698085C0128AE
:101C200017D15A4A5C49079B8DE80E0002235B4A94
:101C30005B4801685B48006803F026FD089008983F
:101C400001F09AFE089804F0FFF90021574A06981F
:101C5000115456490698085C01281DD14B48018E45
:101C60000598401F814217DA484A4B49079B8DE887
:101C70000E000223494A4A4801684A48006803F0B6
:101C800003FD0890089801F077FE089804F0DCF94D
:101C90000021464A0698115400204A4908700698C7
:101CA000401CC0B206902920079047480078059054
:101CB0003648418E059881422EDD4048007858BB59
:101CC0003A490698085C00BB404800781E281DDD94
:101CD000079840F080032D4A2F498DE80E0002231B
:101CE0002E4A2F4801682F48006803F0CDFC089069
:101CF000089801F041FE089804F0A6F901202A494D
:101D000008700121294A069811546FE02F48007885
:101D1000401C2E49087069E02848007801281CD131
:101D200022490698085C012817D1184A1A49079BCE
:101D30008DE80E000223194A194801681948006805
:101D400003F0A2FC0890089801F016FE089804F031
:101D50007BF90021154A0698115414490698085C2D
:101D6000012840D10948418E0598C01E81423ADAC7
:101D7000064A0949079B8DE80E000223074A0848D6
:101D800001680848006803F07FFC21E0980100200A
:101D90004A0000201402002035000020CC01002061
:101DA0001400002010000020290000200002002064
:101DB0004E000020520000205A0000205300002056
:101DC000610000205D000020620000205E00002015
:101DD0000890089801F0D0FD089804F035F900212A
:101DE000FF4A069811540020FE4908700698401CCE
:101DF000C0B206902A200790FB480088B0F5FA6F21
:101E000024DDF7490698085CF8B9079840F080038C
:101E1000F64AF7498DE80E000223F64AF6480168B3
:101E2000F648006803F030FC0890089801F0A4FD23
:101E3000089804F009F90120F14908700121E84AE5
:101E4000069811540120EF4908701FE0E4490698F4
:101E5000085C01281AD1E54AE549079B8DE80E0088
:101E60000223E44AE4480168E448006803F00CFCFB
:101E70000890089801F080FD089804F0E5F800212A
:101E8000D74A069811540020DE4908700698401C75
:101E9000C0B206902B200790D448007C68BBD04984
:101EA0000698085C10BBD8480078D8490978884261
:101EB0001DDD079840F08003CC4ACD498DE80E0027
:101EC0000223CC4ACC480168CC48006803F0DCFB14
:101ED0000890089801F050FD089804F0B5F801202A
:101EE000C74908700121BE4A0698115425E0C6482A
:101EF0000078401CC44908701FE0B9490698085C86
:101F0000012817D1B94ABA49079B8DE80E00022370
:101F1000B84AB9480168B948006803F0B5FB0890B1
:101F2000089801F029FD089804F08EF80021AC4AC9
:101F3000069811540020B44908700698401CC0B29D
:101F400006902C200790A94890F82B00012821D159
:101F5000A3490698085CD0BB079840F08003A34AC9
:101F6000A3498DE80E000223A24AA3480168A348B2
:101F7000006803F089FB0890089801F0FDFC0898C0
:101F800004F062F801209E4908700121944A0698E5
:101F900011541CE092490698085C012817D1934A15
:101FA0009349079B8DE80E000223924A92480168EC
:101FB0009248006803F068FB0890089801F0DCFC88
:101FC000089804F041F80021854A069811540698B3
:101FD000401CC0B206902D2007908448807C68BBCE
:101FE0007F490698085C10BB8948007887490978C2
:101FF00088421DDD079840F080037C4A7C498DE8CB
:102000000E0002237B4A7C4801687C48006803F08C
:102010003BFB0890089801F0AFFC089804F014F816
:1020200001207749087001216D4A0698115425E076
:1020300077480078401C764908701FE06849069888
:10204000085C012817D1694A6949079B8DE80E0091
:102050000223684A684801686848006803F014FB76
:102060000890089801F088FC089803F0EDFF002123
:102070005B4A069811540020654908700698401C78
:10208000C0B206902E200790584890F82C000128E6
:1020900021D153490698085CD0BB079840F08003D3
:1020A000524A53498DE80E000223524A52480168B1
:1020B0005248006803F0E8FA0890089801F05CFCC8
:1020C000089803F0C1FF01204D4908700121444ADE
:1020D000069811541CE042490698085C012817D163
:1020E000424A4349079B8DE80E000223414A424879
:1020F00001684248006803F0C7FA0890089801F0A8
:102100003BFC089803F0A0FF0021354A06981154C3
:102110000698401CC0B206902F2007903348007DDF
:1021200030B13248C07C01282ED13048407D58BBA8
:102130002B490698085C00BB3648007832281DDD24
:10214000079840F08003294A29498DE80E000223B0
:10215000284A294801682948006803F095FA089040
:10216000089801F009FC089803F06EFF012024494B
:10217000087001211A4A0698115425E02548007874
:10218000401C244908701FE015490698085C012886
:1021900017D1164A1649079B8DE80E000223154AEF
:1021A000154801681548006803F06EFA0890089811
:1021B00001F0E2FB089803F047FF0021084A069867
:1021C00011540020134908700698401CC0B20690B4
:1021D000302007900548807DF0BB014906981BE040
:1021E000000200205E00002048000020980100202E
:1021F00035000020CC010020140000201000002039
:10220000290000204A0000205F000020600000201C
:10221000630000205C000020085C20BBFF48407881
:10222000FF49097888421FDD079840F08003FD4A86
:10223000FD498DE80E000223FC4AFD480168FD4877
:10224000006803F021FA0890089801F095FB0898BF
:1022500003F0FAFE012000E00CE0F74908700121CC
:10226000F64A0698115425E0EC484078401CEB49AA
:1022700048701FE0F1490698085C012817D1E94A27
:10228000E949079B8DE80E000223E84AE848016807
:10229000E848006803F0F8F90890089801F06CFB32
:1022A000089803F0D1FE0021E44A0698115400205A
:1022B000DA4948700698401CC0B206903120079059
:1022C000D84890F82D00012821D1DC490698085CF7
:1022D000D0BB079840F08003D24AD3498DE80E0066
:1022E0000223D24AD2480168D248006803F0CCF9F0
:1022F0000890089801F040FB089803F0A5FE012023
:10230000CD4908700121CD4A069811541CE0CB49F3
:102310000698085C012817D1C24AC349079B8DE87B
:102320000E000223C14AC2480168C248006803F097
:10233000ABF90890089801F01FFB089803F084FEA1
:102340000021BE4A069811540698401CC0B206905F
:1023500032200790B348007E68BBB8490698085CF5
:1023600010BBAE488078AE49097888421DDD0798D9
:1023700040F08003AB4AAC498DE80E000223AB4A23
:10238000AB480168AB48006803F07EF908900898F4
:1023900001F0F2FA089803F057FE0120A6490870F0
:1023A0000121A64A0698115425E09C488078401CDB
:1023B0009A4988701FE0A1490698085C012817D146
:1023C000984A9949079B8DE80E000223974A98483E
:1023D00001689848006803F057F90890089801F0E0
:1023E000CBFA089803F030FE0021944A0698115465
:1023F00000208A4988700698401CC0B2069033209D
:1024000007908848407E68BB8C490698085C10BBE2
:102410008248C0788249097888421DDD079840F0DB
:102420008003804A80498DE80E0002237F4A80485D
:1024300001688048006803F027F90890089801F0C7
:102440009BFA089803F000FE01207B4908700121E7
:102450007A4A0698115425E07048C078401C6F49AC
:10246000C8701FE075490698085C012817D16D4AAD
:102470006D49079B8DE80E0002236C4A6C48016889
:102480006C48006803F000F90890089801F074FAAD
:10249000089803F0D9FD0021684A069811540020DD
:1024A0005E49C8700698401CC0B206903420079060
:1024B0005C48807E88BB5B48007E01282ED15F4946
:1024C0000698085C10BB5548007955490978884240
:1024D0001DDD079840F08003524A53498DE80E00F5
:1024E0000223524A524801685248006803F0CCF86F
:1024F0000890089801F040FA089803F0A5FD012023
:102500004D49087001214D4A0698115426E0434870
:102510000079401C4149087120E0FFE747490698CF
:10252000085C012817D13F4A3F49079B8DE80E0000
:1025300002233E4A3E4801683E48006803F0A4F882
:102540000890089801F018FA089803F07DFD002122
:102550003A4A0698115400203049087138480078EA
:1025600001286FD10698401CC0B206903520079014
:102570002C48C07E68BB31490698085C10BB2748D0
:1025800040792749097888421DDD079840F080038B
:10259000244A25498DE80E000223244A2448016874
:1025A0002448006803F070F80890089801F0E4F9F6
:1025B000089803F049FD01201F49087001211F4AB6
:1025C0000698115425E015484079401C134948717C
:1025D0001FE01A490698085C012817D1114A1249D0
:1025E000079B8DE80E000223104A1148016811482C
:1025F000006803F049F80890089801F0BDF90898C0
:1026000003F022FD00210D4A0698115400200349D1
:1026100048710698401CC0B2069014E06300002088
:10262000600000209801002035000020CC0100202F
:1026300014000020100000202900002000020020CB
:102640000301002044E0362007902248007801284A
:1026500021D121490698085CD0BB079840F080033F
:102660001E4A1F498DE80E0002231E4A1E480168BB
:102670001E48006803F008F80890089801F07CF9FB
:10268000089803F0E1FC0120194908700121124A61
:10269000069811541CE010490698085C012817D1CF
:1026A0000E4A0F49079B8DE80E0002230D4A0E4883
:1026B00001680E48006802F0E7FF0890089801F0F2
:1026C0005BF9089803F0C0FC0021034A06981154F6
:1026D00009B000BD54000020000200209801002035
:1026E00035000020CC010020140000201000002044
:1026F0002900002010B5FFF743F9FEF7B5FE10BD25
:102700007CB500200190009000240025FF2002F0FD
:1027100071FE0546AA2D00D17CBD312057490870B5
:1027200036204870302088703220C87008713420FC
:10273000487130208871C8710872312048720024B5
:1027400009E04E4A115D204602F073FE642003F05A
:1027500097F8601CC4B20A2CF3DB24208DF8040027
:1027600042208DF8050033208DF8060000240BE090
:1027700001AA115D04F10A02D0B202F05AFE6420EF
:1027800003F07EF8601CC4B2032CF1DB00203C494E
:10279000087048708870C870087108460178642015
:1027A00002F047FE642003F06BF83548417865205D
:1027B00002F03FFE642003F063F831488178662020
:1027C00002F037FE642003F05BF82D48C1786720E3
:1027D00002F02FFE642003F053F8294801796820A5
:1027E00002F027FE642003F04BF824208DF800004F
:1027F00042208DF8010033208DF8020000240BE008
:102800001DF8041004F16902D0B202F012FE642037
:1028100003F036F8601CC4B2032CF1DB19480178D0
:10282000322002F006FE642003F02AF816480178F0
:10283000332002F0FEFD642003F022F813480178F3
:10284000142002F0F6FD642003F01AF81048017815
:10285000152002F0EEFD642003F012F8AA21FF20FB
:1028600002F0E7FD642003F00BF800F055FF00F0E4
:1028700089FF002002F08CFE00BF4DE7CC01002054
:1028800035000020610000206200002002010020CD
:102890000301002008B501217C2000F079FB3C20D9
:1028A000ADF8000048208DF803006946494800F063
:1028B00099F84FF40070ADF8000010208DF8030077
:1028C00003208DF802006946424800F08BF84FF46F
:1028D0008070ADF8000048208DF8030069463D483F
:1028E00000F080F81020ADF800008DF80300032000
:1028F0008DF802006946384800F074F86946374898
:1029000000F070F82020ADF8000004208DF80300DE
:102910006946324800F066F84FF44070ADF80000A8
:1029200048208DF8030069462C4800F05BF8C02071
:10293000ADF8000028208DF803006946274800F014
:1029400051F848F20700ADF8000028208DF8030088
:102950006946234800F046F84FF47C40ADF800008B
:1029600048208DF8030069461D4800F03BF84FF4FD
:102970008060ADF8000048208DF8030069461548D6
:1029800000F030F84FF46050ADF8000010208DF8E2
:10299000030003208DF8020069460E4800F022F87B
:1029A0000820ADF8000010208DF8030003208DF8FA
:1029B000020069460A4800F015F80821084800F0AE
:1029C000F2F8C82002F05CFF0821054800F0E9F8A1
:1029D00008BD00000018014000080140001001403F
:1029E000001401402DE9F041024600250026002098
:1029F00000230024002791F803C00CF00F0591F884
:102A000003C01CF0100F03D091F802C04CEA05057A
:102A1000B1F800C01CF0FF0F31D0146800202BE08B
:102A20004FF0010C0CFA00F3B1F800C00CEA0306F9
:102A30009E4220D183004FF00F0C0CFA03F7BC43E9
:102A400005FA03FC4CEA040491F803C0BCF1280F1A
:102A500006D14FF0010C0CFA00FCC2F814C00AE0D9
:102A600091F803C0BCF1480F05D14FF0010C0CFAEE
:102A700000FCC2F810C0401C0828D1D31460B1F883
:102A800000C0BCF1FF0F34DD546800202EE000F1DF
:102A9000080C4FF0010808FA0CF3B1F800C00CEA7A
:102AA00003069E4221D183004FF00F0C0CFA03F76E
:102AB000BC4305FA03FC4CEA040491F803C0BCF1E2
:102AC000280F05D100F1080C08FA0CF8C2F81480A0
:102AD00091F803C0BCF1480F07D100F1080C4FF08A
:102AE000010808FA0CF8C2F81080401C0828CED360
:102AF0005460BDE8F0810000F0B50A4600230024D0
:102B00000021002500F00046B6F1004F02D11D4E15
:102B1000F16901E01B4E7168C0F3034583B200F414
:102B20004016B6F5401F08D121F07061154E766849
:102B300026F07066134F7E6012E000F48016B6F542
:102B4000801F06D1032606FA05F4A14341F0706107
:102B500006E0460D360103FA06F6B14341F0706116
:102B600022B1460D360103FA06F6314300F0004665
:102B7000B6F1004F02D1034EF16101E0014E7160E8
:102B8000F0BD0000000001400146886880B2704737
:102B90000246002093680B4201D0012000E0002093
:102BA0007047416170470161704700000A48407CEE
:102BB0000A4908700848C07C48700748407D887002
:102BC0000548C07DC8700448807E0871024890F8AE
:102BD0002F0048717047000098010020AD000020D0
:102BE0000A48407C0A4908700848C07C4870074879
:102BF000407D88700548C07DC8700448807E08719B
:102C0000024890F82F00487170470000980100209A
:102C1000B300002070B5044681252846FEF782FBEC
:102C20002070A81CC5B22846FEF77CFB6070A81C6B
:102C3000C5B22846FEF776FBA070A81CC5B2284690
:102C4000FEF770FBE070A81CC5B22846FEF76AFBD1
:102C50002071281DC5B22846FEF764FB607170BD67
:102C600000BFFEE708B50121602000F091F9F020D7
:102C7000ADF8000010208DF8030003208DF802004D
:102C800069460948FFF7AEFEF0210748FFF78BFFC2
:102C90008020ADF8000069460448FFF7A3FE8021BC
:102CA0000248FFF780FF08BD0014014000180140F2
:102CB00000BFFEE7704708B54FF4E06000F0BAF8D7
:102CC00025208DF8000002208DF8020001208DF8EB
:102CD0000300684600F06CF826208DF80000032001
:102CE0008DF8020001208DF80300684600F060F8BE
:102CF00027208DF8000003208DF8020001208DF8B8
:102D00000300684600F054F834208DF800000320DA
:102D10008DF8020001208DF80300684600F048F8A5
:102D200014208DF8000004208DF8020001208DF899
:102D30000300684600F03CF840208DF800000420B5
:102D40008DF8020001208DF80300684600F030F88D
:102D500032208DF8000005208DF8020001208DF84A
:102D60000300684600F024F81E208DF800000620BD
:102D70008DF8020001208DF80300684600F018F875
:102D80000B208DF8000001208DF802008DF8030063
:102D9000684600F00DF81D208DF8000007208DF822
:102DA000020001208DF80300684600F001F808BD1C
:102DB00070B5002100230F22C4784CB31A4C24684C
:102DC00004F4E064C4F5E0644FEA1421C1F10403A3
:102DD00022FA01F2447804FA03F1847804EA020446
:102DE00044EA01014FEA0111104C0678A15504781C
:102DF00004F01F054FF0010404FA05F405784FEACA
:102E000065154FF0E02606EB8505C5F8004109E0A1
:102E1000047804F01F050124AC40054D06787611B6
:102E200045F8264070BD00000CED00E000E400E035
:102E300080E100E002490143024A1160704700004E
:102E40000000FA050CED00E070470000F0B58DB011
:102E500004460025002600276946204603F008F8AE
:102E60000546032D02D0042D49D101E0012746E09B
:102E70002648007838B12548007801283ED12448FA
:102E8000007801283AD1022104F1210002F0BCFBB4
:102E900020490870022104F11F0002F0B5FB1D4912
:102EA0004870022104F11D0002F0AEFB1949887040
:102EB000022104F11B0002F0A7FB1649C870022191
:102EC00004F1190002F0A0FB12490871022104F17B
:102ED000170002F099FB0F494871084600F024FEE4
:102EE0000B480078012803D102200849087002E04D
:102EF00001200649087000200549087000BF00BF86
:102F0000304603F0A1F838460DB0F0BD7500002042
:102F100076000020F200002001460020034A50689D
:102F200020F4404008435060704700000010024009
:102F300029B1064A52690243044B5A6104E0034A2C
:102F400052698243014B5A617047000000100240F1
:102F500029B1064AD2690243044BDA6104E0034A0C
:102F6000D2698243014BDA617047000000100240D1
:102F700029B1064A12690243044B1A6104E0034A6C
:102F800012698243014B1A61704700000010024031
:102F900029B1064A92690243044B9A6104E0034A4C
:102FA00092698243014B9A61704700000010024011
:102FB00029B1064AD2680243044BDA6004E0034AAE
:102FC000D2688243014BDA60704700000010024073
:102FD0002DE9F041002100220025002300260024D5
:102FE00000278C46DFF86081D8F8048008F00C01D7
:102FF00021B1042907D0082959D109E0DFF84C8113
:10300000C0F8008058E0DFF84881C0F8008053E045
:10301000DFF83481D8F8048008F47012DFF82881D2
:10302000D8F8048008F48035920C0D2A01D0921C47
:1030300000E0062235B9DFF81C8102FB08F8C0F871
:10304000008033E0DFF80081D8F82C8008F4803667
:10305000DFF8F480D8F82C8008F00F0808F101049C
:1030600046B9DFF8EC80B8FBF4F808FB02F8C0F8CA
:1030700000801BE0DFF8D080D8F82C80C8F303185C
:1030800008F10107DFF8C080D8F82C80C8F30328C6
:1030900008F1020CDFF8B880B8FBF7F808FB0CF871
:1030A000B8FBF4F808FB02F8C0F8008004E0DFF891
:1030B0009C80C0F8008000BF00BFDFF88C80D8F88B
:1030C000048008F0F0010909DFF88C8018F801305D
:1030D000D0F8008028FA03F8C0F80480DFF8688090
:1030E000D8F8048008F4E061090ADFF86C8018F869
:1030F0000130D0F8048028FA03F8C0F80880DFF81F
:103100004880D8F8048008F46051C90ADFF8488084
:1031100018F80130D0F8048028FA03F8C0F80C80C1
:10312000DFF82480D8F8048008F44041890BDFF8E8
:103130002C8018F80130D0F80C80B8FBF3F8C0F8F8
:103140001080BDE8F08100000010024000127A00FB
:1031500040787D0100093D00040100201401002099
:1031600070B586B08226002400250C22314603A8C3
:1031700002F000F900BF29E02846691CCDB203A97E
:10318000085C4DF824005DF824202846691CCDB267
:1031900003A9085C42EA00204DF824005DF82420D1
:1031A0002846691CCDB203A9085C42EA00404DF8EC
:1031B00024005DF824202846691CCDB203A9085CD0
:1031C00042EA00604DF82400601CC4B2032CD3DB3B
:1031D000054900980860054901980860044902986B
:1031E000086006B070BD0000C8000020CC000020C0
:1031F000D000002010B5002410211048FFF7D1FCAA
:1032000010210F48FFF7CDFC10210D48FFF7CBFC34
:1032100000BF0FE020210A48FFF7BAFC0949085512
:1032200010210648FFF7BDFC10210448FFF7BBFC46
:10323000601CC4B2202CEDDB10BD00000008014072
:1032400000100140A801002038B500241E250422EA
:103250002946684602F08EF800BF05E01DF804001C
:1032600003490855601CC4B2042CF7DB38BD0000CC
:103270008C00002038B50024962504222946684693
:1032800002F078F800BF05E01DF804000349085576
:10329000601CC4B2042CF7DB38BD00009C00002089
:1032A00010B500240848FFF76FFC00F03C04C4F39D
:1032B000800006490870C4F3C0004870C4F30010D1
:1032C00088706009C87010BD00180140A900002076
:1032D00000B50848007828B9FFF768FC01200549C7
:1032E000087005E0FFF77CFCFDF7C2FDFFF75EFC10
:1032F00000BD00009800002021B1028842F0400289
:10330000028004E002884FF6BF731A4002807047C3
:1033100070B505460C4616464FF400711048FFF78D
:1033200040FC032000F06EF9C4F3074000F06AF996
:10333000C4F3072000F066F9E0B200F063F904E09E
:10334000A52000F05FF928706D1C3000A6F1010186
:103350008EB2F5D14FF400710148FFF724FC70BD27
:10336000000C01402DE9F05F07460E4614464FF071
:103370000008C146C2460025AB4606F0FF0ACAF166
:103380000000C5B22046E11704EB1161C1F3072824
:10339000E11704EB11610912A4EB012101F0FF090F
:1033A000BAF1000F20D1B8F1000F05D12246314605
:1033B000384600F0D3F864E009E04FF480723146FB
:1033C000384600F0CBF806F5807607F580775FEA9F
:1033D0000800A8F1010101F0FF08EED14A4631468C
:1033E000384600F0BBF84CE0B8F1000F18D1A94501
:1033F00010DDA9EB050000F0FF0B2A4631463846E8
:1034000000F0ACF82E442F445A463146384600F0BE
:10341000A5F836E022463146384600F09FF830E005
:10342000601B84B22046E11704EB1161C1F3072849
:10343000E11704EB11610912A4EB012101F0FF096E
:103440002A463146384600F089F82E442F4409E0D8
:103450004FF480723146384600F080F806F58076E9
:1034600007F580775FEA0800A8F1010101F0FF0885
:10347000EED1B9F1000F04D04A463146384600F08B
:103480006DF8BDE8F09F000000B587B0012108038A
:10349000FFF77EFD01210C20FFF77AFD2020ADF81B
:1034A000040003208DF8060018208DF8070001A9FC
:1034B0002748FFF797FA8020ADF8040001A92448B7
:1034C000FFF790FA4020ADF8040014208DF80700B3
:1034D00001A91F48FFF786FA4FF40070ADF8040009
:1034E00010208DF8070001A91A48FFF77BFAE021A8
:1034F0001748FFF758FB4FF400711648FFF753FBCE
:103500000020ADF808004FF48270ADF80A000020EA
:10351000ADF80C000220ADF80E000120ADF810004F
:103520004002ADF812000820ADF814000020ADF8FC
:1035300016000720ADF8180002A9074800F0CCF8E3
:1035400001210548FFF7D8FE00F0A6F807B000BD3E
:1035500000080140000C01400030014070B50546F4
:103560000C46164600F086F84FF400711348FFF73A
:1035700018FB022000F046F8C4F3074000F042F8C0
:10358000C4F3072000F03EF8E0B200F03BF8B6F5D7
:10359000807F01DD4FF4807603E0287800F032F878
:1035A0006D1C3000A6F101018EB2F6D14FF400710E
:1035B0000248FFF7F8FA00F041F870BD000C014036
:1035C00010B5044600F056F84FF400710C48FFF7B0
:1035D000E8FA202000F016F8C4F3074000F012F8D3
:1035E000C4F3072000F00EF8E0B200F00BF84FF43F
:1035F00000710348FFF7D7FA00F020F810BD000073
:10360000000C014010B5044600BF02210A4800F03A
:1036100055F80028F9D02146074800F05BF800BFB4
:103620000121054800F04AF80028F9D0024800F0CE
:103630004EF8C0B210BD00000030014010B50024AB
:103640004FF400710A48FFF7ACFA0520FFF7DAFFE4
:1036500000BFA520FFF7D6FF044604F001000128B3
:10366000F7D04FF400710248FFF79DFA10BD00003B
:10367000000C014010B54FF400710648FFF791FAB5
:103680000620FFF7BFFF4FF400710248FFF78BFAE7
:1036900010BD0000000C014010B54FF40071064849
:1036A000FFF77FFAAB20FFF7ADFF4FF40071024840
:1036B000FFF779FA10BD0000000C0140024600201F
:1036C00013890B4201D0012000E000207047014621
:1036D000888970478181704710B50022028802F402
:1036E00041520B884C8823438C882343CC88234346
:1036F0000C8923434C8923438C892343CC8923435E
:103700001A430280838B4FF2FF74234083830B8A1A
:10371000038210BD70470000F0B587B0002400257B
:103720008227002614480068049014480068059019
:1037300013480068069000BF15E000250FE004A8BC
:1037400050F8240001A98855701CC6B204A850F88E
:103750002400000A04A941F82400681CC5B2042D05
:10376000EDDB601CC4B2032CE7DB0C22394601A858
:1037700001F015FE07B0F0BDC8000020CC0000200D
:10378000D000002038B50024962500BF05E007488A
:10379000005D0DF80400601CC4B2042CF7DB0422A9
:1037A0002946684601F0FBFD38BD00009C00002062
:1037B0003EB50024002500BF0AE02B48005D2B49E0
:1037C00008552B48015D294808300155601CC4B2DA
:1037D000082CF2DBFEF78EFF26480078012802D085
:1037E0002548007890BB25480078012804D1FF20A7
:1037F000234908702349087000231C4A22498DE898
:103800000E000123214A224801682248006801F085
:103810003BFF05462048007840B920480068204911
:103820000968884202D2012001F0B2FE284600F069
:10383000A3F8284600F06AFB284602F005FCFCF7D6
:1038400089FF01200C490870164908701548007856
:10385000012807D100200749087012490870034861
:1038600002F0FAFB3EBD0000180000209801002085
:103870002000002009000020280000204A0000202D
:10388000000000200100002035000020CC010020B5
:103890001400002010000020890000208C0000206F
:1038A000D00000200C0000203EB5274800780128F9
:1038B00007D026480078012803D025480078012841
:1038C00041D1002423480078012804D1FF20224957
:1038D0000870224908700023214A22498DE80E0011
:1038E0000123214A214801682148006801F0CCFEEB
:1038F000044615480078012806D16F21204600F0C3
:10390000A3FF00201049087010480078012806D154
:103910006F21204600F0AEFE00200C4908700C48D4
:10392000007801280BD16F21204600F0FBFE00201B
:10393000074908700F480078012800D10870204618
:1039400002F082FB00BF3EBDFF000020000100200E
:10395000010100204A00002000000020010000209A
:103960009801002035000020CC0100201400002028
:1039700010000020FE00002010B504462548007805
:10398000012803D16F21204600F0CCFE21480078A9
:1039900003283DD020480078012806D002280CD00A
:1039A000032812D0042832D125E01C48007818B131
:1039B0006F21204600F048FF29E01848007818B130
:1039C0006F21204600F056FE21E0144800780128BF
:1039D00003D012480078032804D16F21204600F05C
:1039E00033FF07E00D480078022803D16F212046FD
:1039F00000F040FE0BE00948007818B16F21204626
:103A000000F022FF6F21204600F034FE00BF00BF0F
:103A100010BD0000FE0000200201002089000020EF
:103A200010B500F001F810BD002100203A4A1268DC
:103A300042F48032384B1A6000BF374A126802F4F1
:103A40000030491C10B9B1F5A06FF6D1324A1268A6
:103A500012F4003F01D0012000E0002001285AD1DB
:103A60002E4A126842F010022C4B1A601A46126855
:103A700022F003021A601A46126842F002021A602B
:103A8000254A5268244B5A601A4652685A601A46B0
:103A9000526842F480625A601A46D26A204B1A4039
:103AA0001D4BDA621A46D26A1E4B1A431A4BDA626F
:103AB0001A46126842F080621A6000BF164A126805
:103AC00012F0006FFAD0144A526822F47C12124BA2
:103AD0005A601A46526842F4E8125A601A4612684E
:103AE00042F080721A6000BF0B4A126812F0007F29
:103AF000FAD0094A526822F00302074B5A601A466C
:103B0000526842F002025A6000BF034A526802F053
:103B10000C02082AF9D17047001002400020024030
:103B200000F0FEFF4406010070B504468025002128
:103B30008E20FDF745FC80212846FDF741FCA81C9E
:103B4000C5B261782846FDF73BFCA81CC5B2A17838
:103B50002846FDF735FCA81CC5B2E1782846FDF7DC
:103B60002FFCA81CC5B221792846FDF729FC281D89
:103B7000C5B261792846FDF723FC00BF217880207B
:103B8000FDF71EFC8020FDF7CDFB064616F0800FEA
:103B9000F4D180218E20FDF713FC70BD10B53B4899
:103BA000007858BB3A48007801280FD1394800689E
:103BB00030B138480068384908600120334908703E
:103BC0000020334908703349086012E030484078DB
:103BD00001280ED12F48406830B12E4840682E4948
:103BE00008600220294908700020294948702949A5
:103BF00048602948006808B100F056F82748007866
:103C0000D8B325480068C8B36F2225480168254805
:103C1000FFF77EFB224800686F30214908600846A4
:103C20000068C0F30B00A0F570619C3911D11C48ED
:103C30000068C0F30B00C0F58050194909680844BA
:103C40001749086008460068B0F5001F01D300203E
:103C500008600E480078022803D16F21114800F057
:103C600061FD0A480078012802D10E48FFF784FE62
:103C700009480068401E0849086005E0FFE7002089
:103C8000064908700149087010BD0000E1000020DD
:103C9000E2000020E4000020DC000020E000002022
:103CA000D4000020DC0300202DE9F0478F48006895
:103CB0008F490968884208D38D4800688B4908609D
:103CC0008C4800688C4908600BE18C4D2D68C5F369
:103CD0000F338A4D2D68C5F30B0600200027002105
:103CE000002200246F2596FBF5FC05FB1C656DBBCF
:103CF0006F2596FBF5F503EBC30C05EB8C056D1CEE
:103D0000A8B27A4D2D6885420BD10025DFF8E8C1B5
:103D1000CCF800500125DFF8E8C18CF80050BDE870
:103D2000F087724D2D68854209D9704D2D682D1A86
:103D3000AFB2744DDFF8D0C1CCF8005074E06F4DD5
:103D40002D68DFF8C4C1CCF800506DE0DFF8A08129
:103D5000D8F800804FF02409B8FBF9FA09FB1A885B
:103D60001FFA88FC0025DFF88881D8F80080A8EBCE
:103D70000C081FFA88F5DFF87481D8F80080A84590
:103D800012D3DFF86881C8F80050DFF86881D8F8EE
:103D90000080DFF86491C9F800804FF00108DFF877
:103DA000609189F80080BAE703EBC3084FEA8848BE
:103DB0004FEA184038B92846DFF84881DFF84891C3
:103DC000C9F800802FE0DFF82481D8F80080804512
:103DD0000CD14FF00008DFF82091C9F800804FF0B7
:103DE0000108DFF81C9189F8008098E7DFF8FC8073
:103DF000D8F8008080450ED9DFF8F080D8F8008030
:103E0000A8EB00081FFA88F7DFF8F880DFF8F890D1
:103E1000C9F8008007E04FF0D308C8EB0338DFF89B
:103E2000E890C9F8008000BF374D2D68C5F30B0539
:103E30004FF06F0CB5FBFCF56D1CA9B20FB13A4603
:103E400002E02A4D2D68AAB28A420FDC551E05EB0E
:103E5000051CCCEBC515DFF8B0C0DCF800C0ACEB3E
:103E60000505DFF894C0CCF8005039E04D1E05EB95
:103E7000051CCCEBC515DFF890C0DCF800C0ACEB3E
:103E80000505DFF884C0CCF80050551AAAB22425E5
:103E9000B2FBF5F5ACB22425B2FBF5FC05FB1C2505
:103EA000A9B291B1651CDFF860C0DCF800C0ACEBD2
:103EB0000535C1F1240C0CEB0C18C8EBCC1C654487
:103EC000DFF834C0CCF800500AE0651CDFF838C0D9
:103ED000DCF800C0ACEB0535DFF81CC0CCF80050B6
:103EE00000BF01200649087000BF18E7DC00002071
:103EF000D0000020C8000020D4000020CC0000200A
:103F0000E00000202DFF1F00D800002070B50546FE
:103F1000002427480068B0F5904F1ED2244800685E
:103F20002421B0FBF1F201FB120058B920480068CF
:103F3000B0FBF1F0C4B22003FFF742FB20031D49A0
:103F4000086004E01B4800686F301A490860184890
:103F50000068401C1649086020E017480068C0F35C
:103F600007342003FFF72CFB134800681149086051
:103F70001148006800F580500F4908600846006845
:103F8000B0F5001F01D300200860094800682438FC
:103F90000749086008460068401C08606F22054811
:103FA00001682846FFF7DEF9FFF7B6FB70BD000099
:103FB000D0000020CC000020C800002000BF114825
:103FC000B0F1807F00D31BE00E48401E4FF0E0218F
:103FD000486100BF4817002805DA0F2000010A4990
:103FE0000B22885404E00F20000108494A17885426
:103FF00000BF00204FF0E02188610720086100BF6A
:104000007047000080EE360018ED00E000E400E0AC
:1040100010B515480068132820D9002012490860FF
:104020001248006810F0010F04D180211048FEF7FB
:10403000B8FD03E080210E48FEF7B5FD0B4800688F
:104040004EF66021884205D208480068401C0749A6
:10405000086008E000200549086004E002480068A4
:10406000401C0149086010BD4400002040000020B1
:104070000018014010B51648006840F001001449CE
:1040800008600846406813490840114948600846DE
:104090000068114908400E4908600846006820F48D
:1040A000802008600846406820F4FE00486008460A
:1040B000006820F0A05008604FF47F008860002066
:1040C000C862FFF7ADFC4FF000600449086010BD06
:1040D000001002400000FFF0FFFFF6FE08ED00E0D8
:1040E00010B501214D4800F0AAF9F0B301214B4869
:1040F00000F096F94A480078012808D1494800782C
:10410000FF2804DA47480078401C464908704548B3
:104110000078042807DD00204149087041490870F3
:1041200001204149087041480078012808D14048E1
:104130000078FF2804DA3E480078401C3C490870AB
:104140003B480078042807DD0020384908703849CA
:1041500008700120374908703748007801280AD1D3
:1041600036480078FF2806DA00E04DE03348007852
:10417000401C3249087031480078042807DD0020CF
:104180002D4908702D49087001202D4908702D48CF
:104190000078012808D12C480078FF2804DA2A4842
:1041A0000078401C2849087027480078042807DD5B
:1041B0000020244908702449087001202349087010
:1041C0002348008841F65831884204DA20480088A4
:1041D000401C1F4908801F49098EB1B11D49098E35
:1041E0001D4A1288881A01D4014600E04142022982
:1041F0000BDC1A48008841F6583188420CDA17481F
:104200000088401C1549088006E0002013490880FA
:104210001048008E1049088010BD000000040040C6
:1042200086000020850000208400002082000020FD
:1042300081000020800000207E0000207D00002002
:104240007C0000207A000020790000207800002007
:104250004800002098010020500000204E0000205F
:104260003EB505460C4601210220FEF771FEADF871
:104270000450ADF800400020ADF80600ADF8020093
:104280006946064800F0F8F801221146034800F09C
:10429000E7F80121014800F0C6F83EBD00040040E7
:1042A00010B50121044800F0CAF818B101210248F4
:1042B00000F0B6F810BD0000000800400EB5012166
:1042C0000420FEF745FE4FF6FF70ADF80400ADF890
:1042D00000000020ADF80600ADF80200694608486D
:1042E00000F0CAF80121064800F09AF801221146B0
:1042F000034800F0B5F80121014800F094F80EBD24
:104300000008004010B50121284800F098F8F0B3EB
:104310000121264800F084F825480088401C2449E3
:104320000880084600883B2805DD012021490870E7
:1043300000201F4908802048007801280ED11F481E
:1043400000883B2805DD00201B4908701B490880B8
:1043500004E01A480088401C184908801848008862
:10436000401C17490880084600883B2805DD0120CD
:10437000144908700020124908801348007848B991
:10438000F0211248FEF70DFC01200F4900E00BE080
:10439000087006E0F0210D48FEF705FC00200A49F0
:1043A000087000200A49087010BD0000000C004091
:1043B0005600002009000020290000204C000020A9
:1043C00058000020020000202B00002000140140B3
:1043D0003C0000200EB501210820FEF7B9FD42F295
:1043E0000F70ADF8040041F61F40ADF8000000204A
:1043F000ADF80600ADF802006946084800F03CF848
:104400000121064800F00CF801221146034800F093
:1044100027F80121014800F006F80EBD000C00400D
:10442000CA430282704721B1028842F00102028031
:1044300004E002884FF6FE731A400280704730B5E0
:104440000246002000230024158A05EA010395890D
:1044500005EA010413B10CB1012000E0002030BDD9
:1044600010B51AB183890B43838104E08389CC435F
:10447000A4B22340838110BD002202881D4B9842C4
:104480000ED01D4B98420BD0B0F1804F08D01B4B83
:10449000984205D01A4B984202D01A4B984204D148
:1044A0004FF68F731A404B881A43174B984207D028
:1044B000164B984204D04FF6FF431A40CB881A435C
:1044C00002808B8883850B8803850A4B98420BD02A
:1044D000094B984208D00E4B984205D00D4B98429C
:1044E00002D00D4B984201D10B7A038601238382BF
:1044F00070470000002C01400034014000040040DF
:1045000000080040000C0040001000400014004073
:104510000040014000440140004801402DE9F041C5
:10452000054600260027002426480078012846D1A9
:10453000254908680021FBF717FF03D123482249CA
:1045400008603CE022482349097840F8215021487E
:104550000078401C1F490870084600780A282ED1B0
:104560000026002408E01A4850F824103046FBF7D3
:104570000BFE0646601CC4B20A2CF4DB164930461A
:10458000FBF790FE0646314614480068FBF78AFEAA
:1045900007460D4908683946FBF74EFE0A49086090
:1045A00008680021FBF7E0FE02D1084806490860D0
:1045B000FFF7E8F800200749087002490870BDE8D5
:1045C000F0810000A40000209C0000200416BA42E4
:1045D000B4030020A500002000002041A00000201E
:1045E00010B540F22551154800F051FA20B340F2C1
:1045F0002551124800F036F9104800F003FB10492D
:10460000104A127888541048007804280ADA0120E9
:104610000E49087000200C4908700A480078401CB8
:104620000849087007480078642805DB0020054920
:10463000087001200649087010BD0000004C0040C1
:104640004E0300208300002085000020860000200B
:104650008400002010B5044600BF8021044800F00B
:1046600009FA0028F9D02146014800F0D0FA10BD1F
:10467000004C004070B505460E46002400BF04E023
:10468000285DFFF7E7FF601CC4B2B442F8DB70BDE1
:1046900010B540F22551154800F0F9F920B340F269
:1046A0002551124800F0DEF8104800F0ABFA10492E
:1046B000104A127888541048007804280ADA012039
:1046C0000E49087000200C4908700A480078401C08
:1046D0000849087007480078642805DB0020054970
:1046E000087001200649087010BD00000038014024
:1046F0002202002077000020790000207A000020AC
:104700007800002010B5044600BF8021044800F066
:10471000B1F90028F9D02146014800F078FA10BD1F
:104720000038014070B505460E46002400BF04E085
:10473000285DFFF7E7FF601CC4B2B442F8DB70BD30
:1047400010B540F22551154800F0A1F920B340F210
:104750002551124800F086F8104800F053FA10492D
:10476000104A127888541048007804280ADA012088
:104770000E49087000200C4908700A480078401C57
:104780000849087007480078642805DB00200549BF
:10479000087001200649087010BD00000044004068
:1047A000860200207B0000207D0000207E0000208B
:1047B0007C00002010B540F22551154800F067F943
:1047C00020B340F22551124800F04CF8104800F098
:1047D00019FA1049104A12788854104800780428B1
:1047E0000ADA01200E49087000200C4908700A48B6
:1047F0000078401C0849087007480078642805DBE9
:1048000000200549087001200649087010BD00000D
:1048100000480040EA0200207F00002081000020C4
:10482000820000208000002010B5044600BF8021D7
:10483000044800F01FF90028F9D02146014800F093
:10484000E6F910BD0048004070B505460E4600244C
:1048500000BF04E0285DFFF7E7FF601CC4B2B4426C
:10486000F8DB70BD10B500220023A1F510646A3C8E
:1048700000D100BF0A1201249440A3B2DC4304809B
:1048800010BD21B1828942F40052828104E0828904
:104890004DF6FF731A4082817047000000B58BB05F
:1048A00001213420FEF774FB01218803FEF770FB21
:1048B00001210846FEF76CFB01216648FEF71CF952
:1048C00001214FF4F010FEF743FB18208DF82B0068
:1048D0004FF40070ADF8280003208DF82A000AA9D3
:1048E0005D48FEF77FF804208DF82B000002ADF83C
:1048F00028000AA95848FEF775F818208DF8170007
:104900000420ADF8140003208DF8160005A95248C4
:10491000FEF768F804208DF817000820ADF81400A1
:1049200005A94D48FEF75EF818208DF82B004FF4CE
:104930008070ADF8280003208DF82A000AA94748A6
:10494000FEF750F804208DF82B00C001ADF82800C8
:104950000AA94248FEF746F84FF40060ADF8280077
:1049600004208DF82B000AA93D48FEF73BF84FF4D0
:104970008060ADF8280018208DF82B000AA938486F
:10498000FEF730F84FF4E13006900020ADF81C003F
:10499000ADF81E00ADF82000ADF824000C20ADF8F5
:1049A00022004FF4E13001900020ADF80800ADF88E
:1049B0000A00ADF80C00ADF810000C20ADF80E00A8
:1049C00006A9284800F0B2F8012240F225512548F6
:1049D00000F087F801212348FFF753FF01A922487F
:1049E00000F0A4F8012240F225511F4800F079F8A8
:1049F00001211D48FFF745FF06A91C4800F096F865
:104A0000012240F22551194800F06BF801211748A6
:104A1000FFF737FF4FF4E13006900020ADF81C009F
:104A2000ADF81E00ADF82000ADF824000C20ADF864
:104A3000220006A90E4800F079F8012240F2255123
:104A40000B4800F04EF801210948FFF71AFF0BB0A0
:104A500000BD0000300014000008014000140140B7
:104A60000010014000380140004400400048004070
:104A7000004C004002460020B1F5007F00D100BF8D
:104A800013880B4201D0012000E00020704770B570
:104A900002460024002300250020A1F510666A3E8E
:104AA00000D100BFC1F3421501F01F03012606FA31
:104AB00003F3012D02D19689334006E0022D02D185
:104AC000168A334001E0968A33400C12012606FA1A
:104AD00004F41688344013B10CB1012000E000202A
:104AE00070BDF0B503460024002600250020A1F586
:104AF00010676A3F00D100BF1846C1F3421401F0AD
:104B00001F06012707FA06F5012C01D10C3004E03D
:104B1000022C01D1103000E014301AB107682F4385
:104B2000076002E00768AF430760F0BD2DE9F0477A
:104B300086B005460E460024A24600BFA1460027C7
:104B4000B08900B100BF2F462C8A4CF6FF7004409C
:104B5000F08804432C82AC894EF6F3100440B088F0
:104B600031890843718908430443AC81AC8A4FF60C
:104B7000FF400440B0890443AC8201A8FEF728FA44
:104B80001F48874202D1DDF810A001E0DDF80CA03B
:104B9000A88910F4004F08D00AEBCA0000EB0A10F5
:104BA00031684900B0FBF1F807E00AEBCA0000EBFE
:104BB0000A1031688900B0FBF1F86420B8FBF0F00E
:104BC00004012009642101FB1089A88910F4004F19
:104BD00008D0322000EBC900B0FBF1F000F0070074
:104BE000044308E0322000EB09106421B0FBF1F02F
:104BF00000F00F0004432C8106B0BDE8F0870000F0
:104C00000038014001468888C0F308007047C1F3AE
:104C100008028280704700BFFEE700002DE9F843DC
:104C200004460D4620784D282BD160783F280CD1C2
:104C3000022D0AD10521FFA0FFF774FDFF4800787F
:104C40003030C0B2FFF75EFD69E360783D2817D1D0
:104C5000032D15D1A0783038042811DAA078303827
:104C6000F64908700221F6A0FFF75CFDF3480078D2
:104C70003030C0B2FFF746FD0321F2A0FFF752FD2E
:104C80004DE3207852282FD1EC480078022859D1E2
:104C900060783D2856D1052D54D10020EA4948605E
:104CA00008464168A078303800EBC00202EB0010E3
:104CB00001EB8000E449486008464168E0783038FC
:104CC00000EB800001EB4000DF4948600846416886
:104CD000207930380844DC4948600846406888B389
:104CE0000120DA4948701AE3D4480078032829D112
:104CF000207853287ED1607850287CD006DC432869
:104D000053D0452878D049284ED106E0522874D097
:104D1000532873D0542847D134E2A0783F2812D1C9
:104D2000032D10D100260621C9A0FFF7FBFC00BF10
:104D300005E0C949885DFFF7E5FC701CC6B20A2E84
:104D4000F7DB31E0D5E2A0783D282DD10D2D2BD118
:104D5000002600BF05E0F01C205CBF498855701C90
:104D6000C6B20A2EF7DB0321BCA0FFF7DBFC00264E
:104D700005E0B949885DFFF7C5FC701CC6B20A2E74
:104D8000F7DB0321AFA0FFF7CDFC002609E0B24A14
:104D9000915D304600F04DFB322000F071FD701C3B
:104DA000C6B20A2EF3DB00BFA3E2A0783F2848D1A9
:104DB000032D46D10621AAA0FFF7B4FCAA494879E1
:104DC0000222694601F0B0F902216846FFF7AAFC09
:104DD000A54908790222694601F0A6F90221684630
:104DE000FFF7A0FCA049C8780222694601F09CF9AF
:104DF000022104E07EE233E288E197E0FEE16846CA
:104E0000FFF790FC984988780222694601F08CF9F6
:104E100002216846FFF786FC9349487802226946DA
:104E200001F082F902216846FFF77CFC8E49087880
:104E30000222694601F078F902216846FFF772FC08
:104E400073E0A0783D2870D10F2D6ED1022104F1BE
:104E50000D0000F0D9FB85490870022104F10B0018
:104E600000F0D2FB81494870022104F1090000F0F2
:104E7000CBFB7E4988700221E01D00F0C5FB7B4919
:104E8000C8700221601D00F0BFFB78490871022143
:104E9000E01C00F0B9FB754948710846FEF744FE76
:104EA000032173A0FFF73EFC70494879022269464E
:104EB00001F03AF902216846FFF734FC6B490879A2
:104EC0000222694601F030F902216846FFF72AFC08
:104ED0006649C8780222694601F026F9022168462F
:104EE000FFF720FC614988780222694601F01CF92D
:104EF00002216846FFF716FC5C49487802226946A1
:104F000001F012F902216846FFF70CFC57490878B6
:104F10000222694601F008F902216846FFF702FC07
:104F2000032148A0FFF7FEFB00BFE2E1A0783F2885
:104F300038D1032D36D106214EA0FFF7F3FB4F49A0
:104F400008780222694601F0EFF802216846FFF76F
:104F5000E9FB4A4948780222694601F0E5F8022156
:104F60006846FFF7DFFB454988780222694601F071
:104F7000DBF802216846FFF7D5FB4049C8780222DA
:104F8000694601F0D1F802216846FFF7CBFB3B49A7
:104F900008790222694601F0C7F802216846FFF746
:104FA000C1FBB2E0A0783D286CD10D2D6AD1022161
:104FB000E01C00F029FB314908700221601D00F05F
:104FC00023FB2E4948700221E01D00F01DFB2B49F8
:104FD0008870022104F1090000F016FB2749C8700F
:104FE000022104F10B0000F00FFB2449087103219A
:104FF00023A0FFF797FB214908780222694601F0B8
:1050000093F802216846FFF78DFB1C49487802227D
:10501000694601F089F802216846FFF783FB1749CA
:1050200088780222694601F07FF802216846FFF77E
:1050300079FB28E04D2B6F6B3D000000FE00002047
:105040004D3D00002B6F6B00E4000020E2000020CB
:1050500053492B6F6B3D0000CC01002053493D00AC
:1050600053432B6F6B3D0000EC000020F20000204A
:1050700053433D0053522B6F6B3D00003500002021
:1050800053523D0041E0A749C8780222694601F029
:105090004BF802216846FFF745FBA2490879022236
:1050A000694601F041F802216846FFF73BFB032106
:1050B000AFF27000FFF736FB9A480178642000F0E9
:1050C000B8F9322000F0DCFB96484178652000F00A
:1050D000B0F9322000F0D4FB92488178662000F0CD
:1050E000A8F9322000F0CCFB8E48C178672000F090
:1050F000A0F9322000F0C4FB8A480179682000F052
:1051000098F9322000F0BCFB00BFF2E0A0783F2805
:1051100010D1032D0ED1062183A0FFF703FB02223D
:1051200069468348007800F0FFFF02216846FFF7D8
:10513000F9FA26E0A0783D2823D1052D21D10221BE
:10514000E01C00F061FA7A490870032179A0FFF7AA
:10515000E9FA022269467648007800F0E5FF02216C
:105160006846FFF7DFFA0321AFF22810FFF7DAFAFB
:105170006F480178322000F05CF9642000F080FB79
:1051800000BFB6E0A0783F2810D1032D0ED1062134
:1051900069A0FFF7C7FA022269466948007800F063
:1051A000C3FF02216846FFF7BDFA26E0A0783D283C
:1051B00023D1052D21D10221E01C00F025FA604900
:1051C000087003215FA0FFF7ADFA022269465C4830
:1051D000007800F0A9FF02216846FFF7A3FA032137
:1051E000AFF2A010FFF79EFA55480178332000F087
:1051F00020F9642000F044FB00BF7AE0A0783D284D
:105200002DD100260027032D28DD032707E006EB1C
:1052100086004600E05D30380644781CC7B2AF42D5
:10522000F5DB3046FBF787F880464749FBF73AF84D
:105230004649086000204649087001204549087029
:10524000032145A0FFF76EFAE81EC1B2E01CFFF78C
:1052500069FA0321AFF21420FFF764FA00BF48E0B7
:10526000A0783F2812D1032D10D106213BA0FFF7D3
:1052700059FA3C4800783030C0B2FFF743FA3A4858
:1052800000783030C0B2FFF73DFA31E0A0783D2819
:105290002ED1052D2CD1E078303832490870207994
:1052A000303831490870032126A0FFF73BFA2D481A
:1052B00000783030C0B2FFF725FA2B480078303044
:1052C000C0B2FFF71FFA0321AFF28820FFF72AFAD6
:1052D00024480178142000F0ACF8642000F0D0FAE3
:1052E00021480178152000F0A4F8642000F0C8FAE5
:1052F00000BF14E02078572807D11C480078401ED2
:10530000C1B21B48FFF7A0FA09E02078472806D170
:1053100016480078401EC1B21548FFF7ABF9BDE84A
:10532000F88300003500002053452B6F6B3D0000D3
:105330006100002053453D0053542B6F6B3D00002E
:105340006200002053543D0000002041A0000020D6
:10535000A5000020A400002053533D0053502B6FA4
:105360006B3D0000020100200301002077000020B7
:10537000230200202DE9F04104460D461646002781
:1053800000BF08E0284600F035F82070681CC5B260
:10539000641C781CC7B2B742F4DBBDE8F0812DE98C
:1053A000F04104460D461646002700BF0BE0217869
:1053B000284600F03EF8681CC5B2641C012000F0CD
:1053C0005FFA781CC7B2B742F1DBBDE8F08100009C
:1053D00010B54FF480610648FDF7E5FB00F060FA78
:1053E0004FF400610248FDF7DEFB00F059FA10BDF2
:1053F000000C014070B5044600F030FEA02000F023
:10540000A9FE00F01BF9204600F0A4FE00F016F9FA
:1054100000F024FEA12000F09DFE00F00FF900F046
:1054200061FD054600F03AFE322000F023FA2846DE
:1054300070BD70B505460C4600F010FEA02000F0CF
:1054400089FE00F0FBF8284600F084FE00F0F6F834
:10545000204600F07FFE00F0F1F800F01FFEFA2079
:1054600000F008FA70BD02E008C8121F08C1002A47
:10547000FAD170477047002001E001C1121F002AD5
:10548000FBD17047F0B507460D460024002600BF4B
:105490001DE005F12102911907F11002105D00F0E5
:1054A00039FE701CC6B2012C07D0032C05D0052C88
:1054B00003D0072C01D00A2C07D105F12100811956
:1054C000092000F027FE701CC6B2601CC4B20C2C70
:1054D000DFDB0026002417E005F13202911904F108
:1054E0001B0207F11003985C00F014FE701CC6B29A
:1054F000042C07D105F132008119092000F00AFEC1
:10550000701CC6B2601CC4B2052CE5DB00240CE0A4
:1055100005F1380202EB440107F1300232F81400C1
:10552000022200F001FE601CC4B2022CF0DB002459
:1055300009E005F13C0202EB4401385D022200F073
:10554000F3FD601CC4B2082CF3DB022205F14C0110
:105550000D48007800F0E8FD00240BE005F14E0254
:1055600002EB440107F10802105D022200F0DCFDAD
:10557000601CC4B2082CF1DB022205F15E01034875
:10558000007800F0D1FDF0BD0000002001000020F7
:10559000F8B5054600241E2615B1012D0AD103E0F9
:1055A00000200D49086005E00B480068401C0A49CE
:1055B000086000BF00BF002405E00748005D0DF84B
:1055C0000400601CC4B2042CF7DB04223146684698
:1055D000FFF7E5FEF8BD00008C000020014600202A
:1055E000612905DB662903DCA1F15702D0B20AE08C
:1055F000412905DB462903DCA1F13702D0B202E0E4
:10560000A1F13002D0B2704770B505460C460026B5
:10561000002300BF0BE0E85CFFF7E0FFE11A491E42
:10562000054A52F8211000FB0166581CC3B2601EE7
:105630009842F0DA304670BDCC61000810B5002405
:105640000120FBF765F84FF480610E48FDF7ABFAD7
:1056500000F026F900E0641C4FF400610948FDF7F2
:1056600097FA012803D141F288308442F3D34FF4F2
:1056700080610448FDF795FA00F012F90020FBF76D
:1056800047F810BD000C01402DE9FF5F89469246A6
:105690001F460026B3460025A8460024012F04D04B
:1056A000022F14D0072F36D123E0552504E005F151
:1056B0001A0000F0A7FB0446002CF8D021460E98F3
:1056C00000F006FD21460F98FFF7DCFE2DE0552582
:1056D00004E005F11A0000F095FB0446002CF8D018
:1056E00021460E9800F0F4FC21460F98FFF7CAFE01
:1056F0001BE0552504E005F11A0000F083FB044689
:10570000002CF8D021460E9800F0E2FC21460F98BC
:10571000FFF7B8FE09E0002504E005F11A0000F0EB
:1057200071FB0446002CF8D000BF00BF022204F138
:105730004201109800F0F8FC402020700422611C07
:10574000009800F0F1FC0422611D484600F0ECFCDA
:10575000002606E01AF8061006F109002154701C14
:10576000C6B20A2EF6DB022204F11301384600F01D
:10577000DBFC022204F11501284600F0D5FC05F1FE
:105780000B021119394A5079022200F0CDFC05F1C3
:105790000D021119354A1079022200F0C5FC05F1FD
:1057A0000F021119314AD078022200F0BDFC05F138
:1057B000110211192D4A9078022200F0B5FC05F172
:1057C00013021119294A5078022200F0ADFC05F1AC
:1057D00015021119254A1078022200F0A5FC24496F
:1057E0000878022204F1220100F09EFC204948784A
:1057F000022204F1250100F097FC1D49887802225D
:1058000004F1280100F090FC1949C878022204F143
:105810002B0100F089FC16490879022204F12F01BE
:1058200000F082FC12494879022204F1360100F0AE
:105830007BFC4FF0170807E014F8080080EA0B0B18
:1058400008F1010000F0FF0805F117008045F3DBC7
:1058500021180222584600F067FC242105F11900A6
:105860002154204604B0BDE8F09F0000EC00002069
:10587000BF000020002100E0491C8142FCD370479A
:10588000002107E042F6E06100BF0A00A1F1010338
:1058900099B2FAD10200A0F1010398B2F2D1704797
:1058A0000A2000BF0100A0F10102D0B2FAD1704776
:1058B000F0B505460F4614460026022104F11300F8
:1058C000FFF7A2FE28810421601CFFF79DFE2860DF
:1058D0000421601DFFF798FE686000BF05E006F137
:1058E0000900205CB855701CC6B20A2EF7DBF0BD6B
:1058F00070B504460D4600260020A081022105F166
:105900001500FFF781FE6081172605E0A089A95DDB
:105910004840A081701CC6B260891730B042F5DCE7
:10592000628905F1170150180221FFF76DFEE08131
:1059300070BD000010B50022002014E0002107E037
:105940000A4B03EB810333F810301A444B1CD9B2D5
:105950001E29F5DB1E2392FBF3F3054C24F81030CF
:105960000022431CD8B20228E8DB10BD2001002031
:105970000400002010B5002821D0114B001F002288
:10598000196803E0814203D80A4649680029F9D121
:1059900052B11368841A9C4204D100681844106004
:1059A000104602E0506000E0186039B102680B1A3E
:1059B000934203D10B681A4402604968416010BDEC
:1059C000180100201CB5002001900090002400BFA9
:1059D00006E02046FFF70EFD3C490855601CC4B2A6
:1059E0000A2CF6DB002408E004F10A01C8B2FFF734
:1059F00001FD01A90855601CC4B2032CF4DB64202E
:105A0000FFF7F8FC324908706520FFF7F3FC3049D6
:105A100048706620FFF7EEFC2D4988706720FFF77D
:105A2000E9FC2B49C8706820FFF7E4FC284908719D
:105A3000002408E004F16901C8B2FFF7DBFC0DF8AF
:105A40000400601CC4B2032CF4DB9DF8040024287D
:105A500007D19DF80500422803D19DF806003328A0
:105A60000BD030201949087048708870C8700871D0
:105A700048718871C871087248729DF80000242826
:105A800007D19DF80100422803D19DF80200332878
:105A900007D000200E49087048708870C8700871DF
:105AA00013E03220FFF7A6FC0A4908703320FFF705
:105AB000A1FC094908701420FFF79CFC07490870F5
:105AC0001520FFF797FC064908701CBDCC0100208B
:105AD000350000206100002062000020020100204B
